{
  "contractName": "CallerContract",
  "abi": [
    {
      "constant": false,
      "inputs": [],
      "name": "renounceOwnership",
      "outputs": [],
      "payable": false,
      "stateMutability": "nonpayable",
      "type": "function"
    },
    {
      "constant": true,
      "inputs": [],
      "name": "owner",
      "outputs": [
        {
          "name": "",
          "type": "address"
        }
      ],
      "payable": false,
      "stateMutability": "view",
      "type": "function"
    },
    {
      "constant": true,
      "inputs": [],
      "name": "isOwner",
      "outputs": [
        {
          "name": "",
          "type": "bool"
        }
      ],
      "payable": false,
      "stateMutability": "view",
      "type": "function"
    },
    {
      "constant": false,
      "inputs": [
        {
          "name": "newOwner",
          "type": "address"
        }
      ],
      "name": "transferOwnership",
      "outputs": [],
      "payable": false,
      "stateMutability": "nonpayable",
      "type": "function"
    },
    {
      "anonymous": false,
      "inputs": [
        {
          "indexed": false,
          "name": "oracleAddress",
          "type": "address"
        }
      ],
      "name": "newOracleAddressEvent",
      "type": "event"
    },
    {
      "anonymous": false,
      "inputs": [
        {
          "indexed": false,
          "name": "id",
          "type": "uint256"
        }
      ],
      "name": "ReceivedNewRequestIdEvent",
      "type": "event"
    },
    {
      "anonymous": false,
      "inputs": [
        {
          "indexed": false,
          "name": "ethPrice",
          "type": "uint256"
        },
        {
          "indexed": false,
          "name": "id",
          "type": "uint256"
        }
      ],
      "name": "PriceUpdatedEvent",
      "type": "event"
    },
    {
      "anonymous": false,
      "inputs": [
        {
          "indexed": true,
          "name": "previousOwner",
          "type": "address"
        },
        {
          "indexed": true,
          "name": "newOwner",
          "type": "address"
        }
      ],
      "name": "OwnershipTransferred",
      "type": "event"
    },
    {
      "constant": false,
      "inputs": [
        {
          "name": "_oracleInstanceAddress",
          "type": "address"
        }
      ],
      "name": "setOracleInstanceAddress",
      "outputs": [],
      "payable": false,
      "stateMutability": "nonpayable",
      "type": "function"
    },
    {
      "constant": false,
      "inputs": [],
      "name": "updateEthPrice",
      "outputs": [],
      "payable": false,
      "stateMutability": "nonpayable",
      "type": "function"
    },
    {
      "constant": false,
      "inputs": [
        {
          "name": "_ethPrice",
          "type": "uint256"
        },
        {
          "name": "_id",
          "type": "uint256"
        }
      ],
      "name": "callback",
      "outputs": [],
      "payable": false,
      "stateMutability": "nonpayable",
      "type": "function"
    }
  ],
  "bytecode": "0x6080604052600061001d6100c0640100000000026401000000009004565b9050806000806101000a81548173ffffffffffffffffffffffffffffffffffffffff021916908373ffffffffffffffffffffffffffffffffffffffff1602179055508073ffffffffffffffffffffffffffffffffffffffff16600073ffffffffffffffffffffffffffffffffffffffff167f8be0079c531659141344cd1fd0a4f28419497f9722a3daafe3b4186f6b6457e060405160405180910390a3506100c8565b600033905090565b610b10806100d76000396000f3fe608060405260043610610083576000357c0100000000000000000000000000000000000000000000000000000000900463ffffffff16806323c7e4a214610088578063715018a61461009f5780638da5cb5b146100b65780638f32d59b1461010d578063b5d73ba41461013c578063e9e17a9e14610181578063f2fde38b146101d2575b600080fd5b34801561009457600080fd5b5061009d610223565b005b3480156100ab57600080fd5b506100b461034e565b005b3480156100c257600080fd5b506100cb610489565b604051808273ffffffffffffffffffffffffffffffffffffffff1673ffffffffffffffffffffffffffffffffffffffff16815260200191505060405180910390f35b34801561011957600080fd5b506101226104b2565b604051808215151515815260200191505060405180910390f35b34801561014857600080fd5b5061017f6004803603604081101561015f57600080fd5b810190808035906020019092919080359060200190929190505050610510565b005b34801561018d57600080fd5b506101d0600480360360208110156101a457600080fd5b81019080803573ffffffffffffffffffffffffffffffffffffffff169060200190929190505050610723565b005b3480156101de57600080fd5b50610221600480360360208110156101f557600080fd5b81019080803573ffffffffffffffffffffffffffffffffffffffff1690602001909291905050506108cb565b005b6000600160009054906101000a900473ffffffffffffffffffffffffffffffffffffffff1673ffffffffffffffffffffffffffffffffffffffff166330c0b9ec6040518163ffffffff167c0100000000000000000000000000000000000000000000000000000000028152600401602060405180830381600087803b1580156102ab57600080fd5b505af11580156102bf573d6000803e3d6000fd5b505050506040513d60208110156102d557600080fd5b8101908080519060200190929190505050905060016004600083815260200190815260200160002060006101000a81548160ff0219169083151502179055507f3ed150819af981e387450beb90ec379b8b322150dbb299d492b108c59a623e4b816040518082815260200191505060405180910390a150565b6103566104b2565b15156103ca576040517f08c379a00000000000000000000000000000000000000000000000000000000081526004018080602001828103825260208152602001807f4f776e61626c653a2063616c6c6572206973206e6f7420746865206f776e657281525060200191505060405180910390fd5b600073ffffffffffffffffffffffffffffffffffffffff166000809054906101000a900473ffffffffffffffffffffffffffffffffffffffff1673ffffffffffffffffffffffffffffffffffffffff167f8be0079c531659141344cd1fd0a4f28419497f9722a3daafe3b4186f6b6457e060405160405180910390a360008060006101000a81548173ffffffffffffffffffffffffffffffffffffffff021916908373ffffffffffffffffffffffffffffffffffffffff160217905550565b60008060009054906101000a900473ffffffffffffffffffffffffffffffffffffffff16905090565b60008060009054906101000a900473ffffffffffffffffffffffffffffffffffffffff1673ffffffffffffffffffffffffffffffffffffffff166104f4610953565b73ffffffffffffffffffffffffffffffffffffffff1614905090565b600360009054906101000a900473ffffffffffffffffffffffffffffffffffffffff1673ffffffffffffffffffffffffffffffffffffffff163373ffffffffffffffffffffffffffffffffffffffff161415156105fb576040517f08c379a000000000000000000000000000000000000000000000000000000000815260040180806020018281038252602d8152602001807f596f7520617265206e6f7420617574686f72697a656420746f2063616c6c207481526020017f6869732066756e6374696f6e2e0000000000000000000000000000000000000081525060400191505060405180910390fd5b6004600082815260200190815260200160002060009054906101000a900460ff1615156106b6576040517f08c379a00000000000000000000000000000000000000000000000000000000081526004018080602001828103825260278152602001807f546869732072657175657374206973206e6f7420696e206d792070656e64696e81526020017f67206c6973742e0000000000000000000000000000000000000000000000000081525060400191505060405180910390fd5b816002819055506004600082815260200190815260200160002060006101000a81549060ff02191690557f6b69e4f2aedf7e65a79ecaf16e8869b2b99c87e341f2c51286bfd4a7fc3b99698282604051808381526020018281526020019250505060405180910390a15050565b61072b6104b2565b151561079f576040517f08c379a00000000000000000000000000000000000000000000000000000000081526004018080602001828103825260208152602001807f4f776e61626c653a2063616c6c6572206973206e6f7420746865206f776e657281525060200191505060405180910390fd5b80600360006101000a81548173ffffffffffffffffffffffffffffffffffffffff021916908373ffffffffffffffffffffffffffffffffffffffff160217905550600360009054906101000a900473ffffffffffffffffffffffffffffffffffffffff16600160006101000a81548173ffffffffffffffffffffffffffffffffffffffff021916908373ffffffffffffffffffffffffffffffffffffffff1602179055507f441e3b056b114797955165bd03bb8393fc1658a713f09225de4745a8d068bf7d600360009054906101000a900473ffffffffffffffffffffffffffffffffffffffff16604051808273ffffffffffffffffffffffffffffffffffffffff1673ffffffffffffffffffffffffffffffffffffffff16815260200191505060405180910390a150565b6108d36104b2565b1515610947576040517f08c379a00000000000000000000000000000000000000000000000000000000081526004018080602001828103825260208152602001807f4f776e61626c653a2063616c6c6572206973206e6f7420746865206f776e657281525060200191505060405180910390fd5b6109508161095b565b50565b600033905090565b600073ffffffffffffffffffffffffffffffffffffffff168173ffffffffffffffffffffffffffffffffffffffff1614151515610a26576040517f08c379a00000000000000000000000000000000000000000000000000000000081526004018080602001828103825260268152602001807f4f776e61626c653a206e6577206f776e657220697320746865207a65726f206181526020017f646472657373000000000000000000000000000000000000000000000000000081525060400191505060405180910390fd5b8073ffffffffffffffffffffffffffffffffffffffff166000809054906101000a900473ffffffffffffffffffffffffffffffffffffffff1673ffffffffffffffffffffffffffffffffffffffff167f8be0079c531659141344cd1fd0a4f28419497f9722a3daafe3b4186f6b6457e060405160405180910390a3806000806101000a81548173ffffffffffffffffffffffffffffffffffffffff021916908373ffffffffffffffffffffffffffffffffffffffff1602179055505056fea165627a7a7230582007ccbc536dbb35ce8769984c5ffaaab2a35853572361c9459b1c56864c5ef73c0029",
  "source": "pragma solidity 0.5.0;\n\nimport \"./EthPriceOracleInterface.sol\";\nimport \"openzeppelin-solidity/contracts/ownership/Ownable.sol\";\n\ncontract CallerContract is Ownable {\n    EthPriceOracleInterface private oracleInstance;\n\n    uint256 private ethPrice;\n    address private oracleAddress;\n\n    event newOracleAddressEvent(address oracleAddress);\n    event ReceivedNewRequestIdEvent(uint256 id);\n    event PriceUpdatedEvent(uint256 ethPrice, uint256 id);\n\n    mapping(uint256=>bool) myRequests;\n\n    function setOracleInstanceAddress(address _oracleInstanceAddress) public onlyOwner {\n        oracleAddress = _oracleInstanceAddress;\n        oracleInstance = EthPriceOracleInterface(oracleAddress);\n        emit newOracleAddressEvent(oracleAddress);\n    }\n\n    function updateEthPrice() public {\n        uint256 id = oracleInstance.getLatestEthPrice();\n        myRequests[id] = true;\n        emit ReceivedNewRequestIdEvent(id);\n    }\n\n    function callback(uint256 _ethPrice, uint256 _id) public onlyOracle {\n        require(myRequests[_id], \"This request is not in my pending list.\");\n        ethPrice = _ethPrice;\n        delete myRequests[_id];\n        emit PriceUpdatedEvent(_ethPrice, _id);\n    }\n\n    modifier onlyOracle() {\n        require(msg.sender == oracleAddress, \"You are not authorized to call this function.\");\n        _;\n    }\n}",
  "sourcePath": "/Users/macbook/Documents/freelance/blockchain/etherPriceOracle/caller/contracts/CallerContract.sol",
  "compiler": {
    "name": "solc",
    "version": "0.5.0+commit.1d4f565a.Emscripten.clang"
  },
  "schemaVersion": "3.1.0",
  "updatedAt": "2020-04-22T17:18:31.629Z",
  "networkType": "ethereum",
  "devdoc": {
    "methods": {
      "isOwner()": {
        "details": "Returns true if the caller is the current owner."
      },
      "owner()": {
        "details": "Returns the address of the current owner."
      },
      "renounceOwnership()": {
        "details": "Leaves the contract without owner. It will not be possible to call `onlyOwner` functions anymore. Can only be called by the current owner.     * NOTE: Renouncing ownership will leave the contract without an owner, thereby removing any functionality that is only available to the owner."
      },
      "transferOwnership(address)": {
        "details": "Transfers ownership of the contract to a new account (`newOwner`). Can only be called by the current owner."
      }
    }
  },
  "userdoc": {
    "methods": {}
  }
}